{
  "_format": "hh-sol-artifact-1",
  "contractName": "MessageCoin",
  "sourceName": "contracts/MessageCoin.sol",
  "abi": [
    {
      "inputs": [
        {
          "internalType": "string",
          "name": "name",
          "type": "string"
        },
        {
          "internalType": "string",
          "name": "symbol",
          "type": "string"
        }
      ],
      "stateMutability": "nonpayable",
      "type": "constructor"
    },
    {
      "anonymous": false,
      "inputs": [
        {
          "indexed": true,
          "internalType": "address",
          "name": "owner",
          "type": "address"
        },
        {
          "indexed": true,
          "internalType": "address",
          "name": "spender",
          "type": "address"
        },
        {
          "indexed": false,
          "internalType": "uint256",
          "name": "value",
          "type": "uint256"
        }
      ],
      "name": "Approval",
      "type": "event"
    },
    {
      "anonymous": false,
      "inputs": [
        {
          "indexed": true,
          "internalType": "address",
          "name": "from",
          "type": "address"
        },
        {
          "indexed": true,
          "internalType": "address",
          "name": "to",
          "type": "address"
        },
        {
          "indexed": true,
          "internalType": "uint256",
          "name": "timestamp",
          "type": "uint256"
        },
        {
          "indexed": false,
          "internalType": "string",
          "name": "message",
          "type": "string"
        }
      ],
      "name": "Message",
      "type": "event"
    },
    {
      "anonymous": false,
      "inputs": [
        {
          "indexed": true,
          "internalType": "address",
          "name": "previousOwner",
          "type": "address"
        },
        {
          "indexed": true,
          "internalType": "address",
          "name": "newOwner",
          "type": "address"
        }
      ],
      "name": "OwnershipTransferred",
      "type": "event"
    },
    {
      "anonymous": false,
      "inputs": [
        {
          "indexed": true,
          "internalType": "address",
          "name": "from",
          "type": "address"
        },
        {
          "indexed": true,
          "internalType": "address",
          "name": "to",
          "type": "address"
        },
        {
          "indexed": false,
          "internalType": "uint256",
          "name": "value",
          "type": "uint256"
        }
      ],
      "name": "Transfer",
      "type": "event"
    },
    {
      "inputs": [
        {
          "internalType": "address",
          "name": "owner",
          "type": "address"
        },
        {
          "internalType": "address",
          "name": "spender",
          "type": "address"
        }
      ],
      "name": "allowance",
      "outputs": [
        {
          "internalType": "uint256",
          "name": "",
          "type": "uint256"
        }
      ],
      "stateMutability": "view",
      "type": "function"
    },
    {
      "inputs": [
        {
          "internalType": "address",
          "name": "spender",
          "type": "address"
        },
        {
          "internalType": "uint256",
          "name": "amount",
          "type": "uint256"
        }
      ],
      "name": "approve",
      "outputs": [
        {
          "internalType": "bool",
          "name": "",
          "type": "bool"
        }
      ],
      "stateMutability": "nonpayable",
      "type": "function"
    },
    {
      "inputs": [
        {
          "internalType": "address",
          "name": "account",
          "type": "address"
        }
      ],
      "name": "balanceOf",
      "outputs": [
        {
          "internalType": "uint256",
          "name": "",
          "type": "uint256"
        }
      ],
      "stateMutability": "view",
      "type": "function"
    },
    {
      "inputs": [],
      "name": "cost",
      "outputs": [
        {
          "internalType": "uint256",
          "name": "",
          "type": "uint256"
        }
      ],
      "stateMutability": "view",
      "type": "function"
    },
    {
      "inputs": [],
      "name": "decimals",
      "outputs": [
        {
          "internalType": "uint8",
          "name": "",
          "type": "uint8"
        }
      ],
      "stateMutability": "pure",
      "type": "function"
    },
    {
      "inputs": [
        {
          "internalType": "address",
          "name": "spender",
          "type": "address"
        },
        {
          "internalType": "uint256",
          "name": "subtractedValue",
          "type": "uint256"
        }
      ],
      "name": "decreaseAllowance",
      "outputs": [
        {
          "internalType": "bool",
          "name": "",
          "type": "bool"
        }
      ],
      "stateMutability": "nonpayable",
      "type": "function"
    },
    {
      "inputs": [],
      "name": "destroy",
      "outputs": [],
      "stateMutability": "nonpayable",
      "type": "function"
    },
    {
      "inputs": [],
      "name": "getBalance",
      "outputs": [
        {
          "internalType": "uint256",
          "name": "",
          "type": "uint256"
        }
      ],
      "stateMutability": "view",
      "type": "function"
    },
    {
      "inputs": [
        {
          "internalType": "address",
          "name": "spender",
          "type": "address"
        },
        {
          "internalType": "uint256",
          "name": "addedValue",
          "type": "uint256"
        }
      ],
      "name": "increaseAllowance",
      "outputs": [
        {
          "internalType": "bool",
          "name": "",
          "type": "bool"
        }
      ],
      "stateMutability": "nonpayable",
      "type": "function"
    },
    {
      "inputs": [
        {
          "internalType": "uint256",
          "name": "amt",
          "type": "uint256"
        }
      ],
      "name": "mint",
      "outputs": [],
      "stateMutability": "payable",
      "type": "function"
    },
    {
      "inputs": [],
      "name": "name",
      "outputs": [
        {
          "internalType": "string",
          "name": "",
          "type": "string"
        }
      ],
      "stateMutability": "view",
      "type": "function"
    },
    {
      "inputs": [],
      "name": "owner",
      "outputs": [
        {
          "internalType": "address",
          "name": "",
          "type": "address"
        }
      ],
      "stateMutability": "view",
      "type": "function"
    },
    {
      "inputs": [],
      "name": "renounceOwnership",
      "outputs": [],
      "stateMutability": "nonpayable",
      "type": "function"
    },
    {
      "inputs": [
        {
          "internalType": "address",
          "name": "to",
          "type": "address"
        },
        {
          "internalType": "string",
          "name": "message",
          "type": "string"
        }
      ],
      "name": "sendMessage",
      "outputs": [],
      "stateMutability": "nonpayable",
      "type": "function"
    },
    {
      "inputs": [
        {
          "internalType": "uint256",
          "name": "newCost",
          "type": "uint256"
        }
      ],
      "name": "setCost",
      "outputs": [],
      "stateMutability": "nonpayable",
      "type": "function"
    },
    {
      "inputs": [],
      "name": "symbol",
      "outputs": [
        {
          "internalType": "string",
          "name": "",
          "type": "string"
        }
      ],
      "stateMutability": "view",
      "type": "function"
    },
    {
      "inputs": [],
      "name": "totalSupply",
      "outputs": [
        {
          "internalType": "uint256",
          "name": "",
          "type": "uint256"
        }
      ],
      "stateMutability": "view",
      "type": "function"
    },
    {
      "inputs": [
        {
          "internalType": "address",
          "name": "recipient",
          "type": "address"
        },
        {
          "internalType": "uint256",
          "name": "amount",
          "type": "uint256"
        }
      ],
      "name": "transfer",
      "outputs": [
        {
          "internalType": "bool",
          "name": "",
          "type": "bool"
        }
      ],
      "stateMutability": "nonpayable",
      "type": "function"
    },
    {
      "inputs": [
        {
          "internalType": "address",
          "name": "sender",
          "type": "address"
        },
        {
          "internalType": "address",
          "name": "recipient",
          "type": "address"
        },
        {
          "internalType": "uint256",
          "name": "amount",
          "type": "uint256"
        }
      ],
      "name": "transferFrom",
      "outputs": [
        {
          "internalType": "bool",
          "name": "",
          "type": "bool"
        }
      ],
      "stateMutability": "nonpayable",
      "type": "function"
    },
    {
      "inputs": [
        {
          "internalType": "address",
          "name": "newOwner",
          "type": "address"
        }
      ],
      "name": "transferOwnership",
      "outputs": [],
      "stateMutability": "nonpayable",
      "type": "function"
    },
    {
      "inputs": [],
      "name": "withdraw",
      "outputs": [],
      "stateMutability": "payable",
      "type": "function"
    },
    {
      "stateMutability": "payable",
      "type": "receive"
    }
  ],
  "bytecode": "0x60806040523480156200001157600080fd5b5060405162002b5938038062002b5983398181016040528101906200003791906200042c565b81818160039080519060200190620000519291906200030a565b5080600490805190602001906200006a9291906200030a565b5050506200008d62000081620000b960201b60201c565b620000c160201b60201c565b620000a43364e8d4a510006200018760201b60201c565b655af3107a4000600681905550505062000756565b600033905090565b6000600560009054906101000a900473ffffffffffffffffffffffffffffffffffffffff16905081600560006101000a81548173ffffffffffffffffffffffffffffffffffffffff021916908373ffffffffffffffffffffffffffffffffffffffff1602179055508173ffffffffffffffffffffffffffffffffffffffff168173ffffffffffffffffffffffffffffffffffffffff167f8be0079c531659141344cd1fd0a4f28419497f9722a3daafe3b4186f6b6457e060405160405180910390a35050565b600073ffffffffffffffffffffffffffffffffffffffff168273ffffffffffffffffffffffffffffffffffffffff161415620001fa576040517f08c379a0000000000000000000000000000000000000000000000000000000008152600401620001f190620004d7565b60405180910390fd5b6200020e600083836200030060201b60201c565b806002600082825462000222919062000586565b92505081905550806000808473ffffffffffffffffffffffffffffffffffffffff1673ffffffffffffffffffffffffffffffffffffffff168152602001908152602001600020600082825462000279919062000586565b925050819055508173ffffffffffffffffffffffffffffffffffffffff16600073ffffffffffffffffffffffffffffffffffffffff167fddf252ad1be2c89b69c2b068fc378daa952ba7f163c4a11628f55a4df523b3ef83604051620002e09190620004f9565b60405180910390a3620002fc600083836200030560201b60201c565b5050565b505050565b505050565b828054620003189062000623565b90600052602060002090601f0160209004810192826200033c576000855562000388565b82601f106200035757805160ff191683800117855562000388565b8280016001018555821562000388579182015b82811115620003875782518255916020019190600101906200036a565b5b5090506200039791906200039b565b5090565b5b80821115620003b65760008160009055506001016200039c565b5090565b6000620003d1620003cb846200053f565b62000516565b905082815260208101848484011115620003ea57600080fd5b620003f7848285620005ed565b509392505050565b600082601f8301126200041157600080fd5b815162000423848260208601620003ba565b91505092915050565b600080604083850312156200044057600080fd5b600083015167ffffffffffffffff8111156200045b57600080fd5b6200046985828601620003ff565b925050602083015167ffffffffffffffff8111156200048757600080fd5b6200049585828601620003ff565b9150509250929050565b6000620004ae601f8362000575565b9150620004bb826200072d565b602082019050919050565b620004d181620005e3565b82525050565b60006020820190508181036000830152620004f2816200049f565b9050919050565b6000602082019050620005106000830184620004c6565b92915050565b60006200052262000535565b905062000530828262000659565b919050565b6000604051905090565b600067ffffffffffffffff8211156200055d576200055c620006ed565b5b62000568826200071c565b9050602081019050919050565b600082825260208201905092915050565b60006200059382620005e3565b9150620005a083620005e3565b9250827fffffffffffffffffffffffffffffffffffffffffffffffffffffffffffffffff03821115620005d857620005d76200068f565b5b828201905092915050565b6000819050919050565b60005b838110156200060d578082015181840152602081019050620005f0565b838111156200061d576000848401525b50505050565b600060028204905060018216806200063c57607f821691505b60208210811415620006535762000652620006be565b5b50919050565b62000664826200071c565b810181811067ffffffffffffffff82111715620006865762000685620006ed565b5b80604052505050565b7f4e487b7100000000000000000000000000000000000000000000000000000000600052601160045260246000fd5b7f4e487b7100000000000000000000000000000000000000000000000000000000600052602260045260246000fd5b7f4e487b7100000000000000000000000000000000000000000000000000000000600052604160045260246000fd5b6000601f19601f8301169050919050565b7f45524332303a206d696e7420746f20746865207a65726f206164647265737300600082015250565b6123f380620007666000396000f3fe60806040526004361061012e5760003560e01c806370a08231116100ab578063a0712d681161006f578063a0712d68146103e3578063a457c2d7146103ff578063a9059cbb1461043c578063dd62ed3e14610479578063de6f24bb146104b6578063f2fde38b146104df5761015c565b806370a0823114610322578063715018a61461035f57806383197ef0146103765780638da5cb5b1461038d57806395d89b41146103b85761015c565b806323b872dd116100f257806323b872dd1461024a578063313ce5671461028757806339509351146102b25780633ccfd60b146102ef57806344a0d68a146102f95761015c565b806306fdde0314610161578063095ea7b31461018c57806312065fe0146101c957806313faede6146101f457806318160ddd1461021f5761015c565b3661015c576000600654346101439190611d37565b90506000811115610159576101583382610508565b5b50005b600080fd5b34801561016d57600080fd5b50610176610668565b6040516101839190611a57565b60405180910390f35b34801561019857600080fd5b506101b360048036038101906101ae919061175d565b6106fa565b6040516101c09190611a3c565b60405180910390f35b3480156101d557600080fd5b506101de610718565b6040516101eb9190611c39565b60405180910390f35b34801561020057600080fd5b50610209610720565b6040516102169190611c39565b60405180910390f35b34801561022b57600080fd5b50610234610726565b6040516102419190611c39565b60405180910390f35b34801561025657600080fd5b50610271600480360381019061026c91906116ba565b610730565b60405161027e9190611a3c565b60405180910390f35b34801561029357600080fd5b5061029c610828565b6040516102a99190611c54565b60405180910390f35b3480156102be57600080fd5b506102d960048036038101906102d4919061175d565b61082d565b6040516102e69190611a3c565b60405180910390f35b6102f76108d9565b005b34801561030557600080fd5b50610320600480360381019061031b9190611799565b61099e565b005b34801561032e57600080fd5b5061034960048036038101906103449190611655565b610a24565b6040516103569190611c39565b60405180910390f35b34801561036b57600080fd5b50610374610a6c565b005b34801561038257600080fd5b5061038b610af4565b005b34801561039957600080fd5b506103a2610b89565b6040516103af9190611a21565b60405180910390f35b3480156103c457600080fd5b506103cd610bb3565b6040516103da9190611a57565b60405180910390f35b6103fd60048036038101906103f89190611799565b610c45565b005b34801561040b57600080fd5b506104266004803603810190610421919061175d565b610d40565b6040516104339190611a3c565b60405180910390f35b34801561044857600080fd5b50610463600480360381019061045e919061175d565b610e2b565b6040516104709190611a3c565b60405180910390f35b34801561048557600080fd5b506104a0600480360381019061049b919061167e565b610e49565b6040516104ad9190611c39565b60405180910390f35b3480156104c257600080fd5b506104dd60048036038101906104d89190611709565b610ed0565b005b3480156104eb57600080fd5b5061050660048036038101906105019190611655565b610fa7565b005b600073ffffffffffffffffffffffffffffffffffffffff168273ffffffffffffffffffffffffffffffffffffffff161415610578576040517f08c379a000000000000000000000000000000000000000000000000000000000815260040161056f90611c19565b60405180910390fd5b6105846000838361109f565b80600260008282546105969190611ce1565b92505081905550806000808473ffffffffffffffffffffffffffffffffffffffff1673ffffffffffffffffffffffffffffffffffffffff16815260200190815260200160002060008282546105eb9190611ce1565b925050819055508173ffffffffffffffffffffffffffffffffffffffff16600073ffffffffffffffffffffffffffffffffffffffff167fddf252ad1be2c89b69c2b068fc378daa952ba7f163c4a11628f55a4df523b3ef836040516106509190611c39565b60405180910390a3610664600083836110a4565b5050565b60606003805461067790611e59565b80601f01602080910402602001604051908101604052809291908181526020018280546106a390611e59565b80156106f05780601f106106c5576101008083540402835291602001916106f0565b820191906000526020600020905b8154815290600101906020018083116106d357829003601f168201915b5050505050905090565b600061070e6107076110a9565b84846110b1565b6001905092915050565b600047905090565b60065481565b6000600254905090565b600061073d84848461127c565b6000600160008673ffffffffffffffffffffffffffffffffffffffff1673ffffffffffffffffffffffffffffffffffffffff16815260200190815260200160002060006107886110a9565b73ffffffffffffffffffffffffffffffffffffffff1673ffffffffffffffffffffffffffffffffffffffff16815260200190815260200160002054905082811015610808576040517f08c379a00000000000000000000000000000000000000000000000000000000081526004016107ff90611b19565b60405180910390fd5b61081c856108146110a9565b8584036110b1565b60019150509392505050565b600090565b60006108cf61083a6110a9565b8484600160006108486110a9565b73ffffffffffffffffffffffffffffffffffffffff1673ffffffffffffffffffffffffffffffffffffffff16815260200190815260200160002060008873ffffffffffffffffffffffffffffffffffffffff1673ffffffffffffffffffffffffffffffffffffffff168152602001908152602001600020546108ca9190611ce1565b6110b1565b6001905092915050565b6108e16110a9565b73ffffffffffffffffffffffffffffffffffffffff166108ff610b89565b73ffffffffffffffffffffffffffffffffffffffff1614610955576040517f08c379a000000000000000000000000000000000000000000000000000000000815260040161094c90611b39565b60405180910390fd5b3373ffffffffffffffffffffffffffffffffffffffff166108fc479081150290604051600060405180830381858888f1935050505015801561099b573d6000803e3d6000fd5b50565b6109a66110a9565b73ffffffffffffffffffffffffffffffffffffffff166109c4610b89565b73ffffffffffffffffffffffffffffffffffffffff1614610a1a576040517f08c379a0000000000000000000000000000000000000000000000000000000008152600401610a1190611b39565b60405180910390fd5b8060068190555050565b60008060008373ffffffffffffffffffffffffffffffffffffffff1673ffffffffffffffffffffffffffffffffffffffff168152602001908152602001600020549050919050565b610a746110a9565b73ffffffffffffffffffffffffffffffffffffffff16610a92610b89565b73ffffffffffffffffffffffffffffffffffffffff1614610ae8576040517f08c379a0000000000000000000000000000000000000000000000000000000008152600401610adf90611b39565b60405180910390fd5b610af260006114fd565b565b610afc6110a9565b73ffffffffffffffffffffffffffffffffffffffff16610b1a610b89565b73ffffffffffffffffffffffffffffffffffffffff1614610b70576040517f08c379a0000000000000000000000000000000000000000000000000000000008152600401610b6790611b39565b60405180910390fd5b3373ffffffffffffffffffffffffffffffffffffffff16ff5b6000600560009054906101000a900473ffffffffffffffffffffffffffffffffffffffff16905090565b606060048054610bc290611e59565b80601f0160208091040260200160405190810160405280929190818152602001828054610bee90611e59565b8015610c3b5780601f10610c1057610100808354040283529160200191610c3b565b820191906000526020600020905b815481529060010190602001808311610c1e57829003601f168201915b5050505050905090565b60008111610c88576040517f08c379a0000000000000000000000000000000000000000000000000000000008152600401610c7f90611b59565b60405180910390fd5b60065481610c969190611d68565b341015610cd8576040517f08c379a0000000000000000000000000000000000000000000000000000000008152600401610ccf90611af9565b60405180910390fd5b600654600182610ce89190611ce1565b610cf29190611d68565b3410610d33576040517f08c379a0000000000000000000000000000000000000000000000000000000008152600401610d2a90611b79565b60405180910390fd5b610d3d3382610508565b50565b60008060016000610d4f6110a9565b73ffffffffffffffffffffffffffffffffffffffff1673ffffffffffffffffffffffffffffffffffffffff16815260200190815260200160002060008573ffffffffffffffffffffffffffffffffffffffff1673ffffffffffffffffffffffffffffffffffffffff16815260200190815260200160002054905082811015610e0c576040517f08c379a0000000000000000000000000000000000000000000000000000000008152600401610e0390611bf9565b60405180910390fd5b610e20610e176110a9565b858584036110b1565b600191505092915050565b6000610e3f610e386110a9565b848461127c565b6001905092915050565b6000600160008473ffffffffffffffffffffffffffffffffffffffff1673ffffffffffffffffffffffffffffffffffffffff16815260200190815260200160002060008373ffffffffffffffffffffffffffffffffffffffff1673ffffffffffffffffffffffffffffffffffffffff16815260200190815260200160002054905092915050565b60003373ffffffffffffffffffffffffffffffffffffffff163111610f2a576040517f08c379a0000000000000000000000000000000000000000000000000000000008152600401610f2190611bd9565b60405180910390fd5b610f3d610f356110a9565b83600161127c565b428273ffffffffffffffffffffffffffffffffffffffff163373ffffffffffffffffffffffffffffffffffffffff167fdd99aef5e4fdfad84059320be40f5dc0f015dc4025f56bd4010608c6743bc22e84604051610f9b9190611a57565b60405180910390a45050565b610faf6110a9565b73ffffffffffffffffffffffffffffffffffffffff16610fcd610b89565b73ffffffffffffffffffffffffffffffffffffffff1614611023576040517f08c379a000000000000000000000000000000000000000000000000000000000815260040161101a90611b39565b60405180910390fd5b600073ffffffffffffffffffffffffffffffffffffffff168173ffffffffffffffffffffffffffffffffffffffff161415611093576040517f08c379a000000000000000000000000000000000000000000000000000000000815260040161108a90611a99565b60405180910390fd5b61109c816114fd565b50565b505050565b505050565b600033905090565b600073ffffffffffffffffffffffffffffffffffffffff168373ffffffffffffffffffffffffffffffffffffffff161415611121576040517f08c379a000000000000000000000000000000000000000000000000000000000815260040161111890611bb9565b60405180910390fd5b600073ffffffffffffffffffffffffffffffffffffffff168273ffffffffffffffffffffffffffffffffffffffff161415611191576040517f08c379a000000000000000000000000000000000000000000000000000000000815260040161118890611ab9565b60405180910390fd5b80600160008573ffffffffffffffffffffffffffffffffffffffff1673ffffffffffffffffffffffffffffffffffffffff16815260200190815260200160002060008473ffffffffffffffffffffffffffffffffffffffff1673ffffffffffffffffffffffffffffffffffffffff168152602001908152602001600020819055508173ffffffffffffffffffffffffffffffffffffffff168373ffffffffffffffffffffffffffffffffffffffff167f8c5be1e5ebec7d5bd14f71427d1e84f3dd0314c0f7b2291e5b200ac8c7c3b9258360405161126f9190611c39565b60405180910390a3505050565b600073ffffffffffffffffffffffffffffffffffffffff168373ffffffffffffffffffffffffffffffffffffffff1614156112ec576040517f08c379a00000000000000000000000000000000000000000000000000000000081526004016112e390611b99565b60405180910390fd5b600073ffffffffffffffffffffffffffffffffffffffff168273ffffffffffffffffffffffffffffffffffffffff16141561135c576040517f08c379a000000000000000000000000000000000000000000000000000000000815260040161135390611a79565b60405180910390fd5b61136783838361109f565b60008060008573ffffffffffffffffffffffffffffffffffffffff1673ffffffffffffffffffffffffffffffffffffffff168152602001908152602001600020549050818110156113ed576040517f08c379a00000000000000000000000000000000000000000000000000000000081526004016113e490611ad9565b60405180910390fd5b8181036000808673ffffffffffffffffffffffffffffffffffffffff1673ffffffffffffffffffffffffffffffffffffffff16815260200190815260200160002081905550816000808573ffffffffffffffffffffffffffffffffffffffff1673ffffffffffffffffffffffffffffffffffffffff16815260200190815260200160002060008282546114809190611ce1565b925050819055508273ffffffffffffffffffffffffffffffffffffffff168473ffffffffffffffffffffffffffffffffffffffff167fddf252ad1be2c89b69c2b068fc378daa952ba7f163c4a11628f55a4df523b3ef846040516114e49190611c39565b60405180910390a36114f78484846110a4565b50505050565b6000600560009054906101000a900473ffffffffffffffffffffffffffffffffffffffff16905081600560006101000a81548173ffffffffffffffffffffffffffffffffffffffff021916908373ffffffffffffffffffffffffffffffffffffffff1602179055508173ffffffffffffffffffffffffffffffffffffffff168173ffffffffffffffffffffffffffffffffffffffff167f8be0079c531659141344cd1fd0a4f28419497f9722a3daafe3b4186f6b6457e060405160405180910390a35050565b60006115d66115d184611c94565b611c6f565b9050828152602081018484840111156115ee57600080fd5b6115f9848285611e17565b509392505050565b6000813590506116108161238f565b92915050565b600082601f83011261162757600080fd5b81356116378482602086016115c3565b91505092915050565b60008135905061164f816123a6565b92915050565b60006020828403121561166757600080fd5b600061167584828501611601565b91505092915050565b6000806040838503121561169157600080fd5b600061169f85828601611601565b92505060206116b085828601611601565b9150509250929050565b6000806000606084860312156116cf57600080fd5b60006116dd86828701611601565b93505060206116ee86828701611601565b92505060406116ff86828701611640565b9150509250925092565b6000806040838503121561171c57600080fd5b600061172a85828601611601565b925050602083013567ffffffffffffffff81111561174757600080fd5b61175385828601611616565b9150509250929050565b6000806040838503121561177057600080fd5b600061177e85828601611601565b925050602061178f85828601611640565b9150509250929050565b6000602082840312156117ab57600080fd5b60006117b984828501611640565b91505092915050565b6117cb81611dc2565b82525050565b6117da81611dd4565b82525050565b60006117eb82611cc5565b6117f58185611cd0565b9350611805818560208601611e26565b61180e81611f78565b840191505092915050565b6000611826602383611cd0565b915061183182611f89565b604082019050919050565b6000611849602683611cd0565b915061185482611fd8565b604082019050919050565b600061186c602283611cd0565b915061187782612027565b604082019050919050565b600061188f602683611cd0565b915061189a82612076565b604082019050919050565b60006118b2601483611cd0565b91506118bd826120c5565b602082019050919050565b60006118d5602883611cd0565b91506118e0826120ee565b604082019050919050565b60006118f8602083611cd0565b91506119038261213d565b602082019050919050565b600061191b602d83611cd0565b915061192682612166565b604082019050919050565b600061193e606583611cd0565b9150611949826121b5565b608082019050919050565b6000611961602583611cd0565b915061196c82612250565b604082019050919050565b6000611984602483611cd0565b915061198f8261229f565b604082019050919050565b60006119a7601c83611cd0565b91506119b2826122ee565b602082019050919050565b60006119ca602583611cd0565b91506119d582612317565b604082019050919050565b60006119ed601f83611cd0565b91506119f882612366565b602082019050919050565b611a0c81611e00565b82525050565b611a1b81611e0a565b82525050565b6000602082019050611a3660008301846117c2565b92915050565b6000602082019050611a5160008301846117d1565b92915050565b60006020820190508181036000830152611a7181846117e0565b905092915050565b60006020820190508181036000830152611a9281611819565b9050919050565b60006020820190508181036000830152611ab28161183c565b9050919050565b60006020820190508181036000830152611ad28161185f565b9050919050565b60006020820190508181036000830152611af281611882565b9050919050565b60006020820190508181036000830152611b12816118a5565b9050919050565b60006020820190508181036000830152611b32816118c8565b9050919050565b60006020820190508181036000830152611b52816118eb565b9050919050565b60006020820190508181036000830152611b728161190e565b9050919050565b60006020820190508181036000830152611b9281611931565b9050919050565b60006020820190508181036000830152611bb281611954565b9050919050565b60006020820190508181036000830152611bd281611977565b9050919050565b60006020820190508181036000830152611bf28161199a565b9050919050565b60006020820190508181036000830152611c12816119bd565b9050919050565b60006020820190508181036000830152611c32816119e0565b9050919050565b6000602082019050611c4e6000830184611a03565b92915050565b6000602082019050611c696000830184611a12565b92915050565b6000611c79611c8a565b9050611c858282611e8b565b919050565b6000604051905090565b600067ffffffffffffffff821115611caf57611cae611f49565b5b611cb882611f78565b9050602081019050919050565b600081519050919050565b600082825260208201905092915050565b6000611cec82611e00565b9150611cf783611e00565b9250827fffffffffffffffffffffffffffffffffffffffffffffffffffffffffffffffff03821115611d2c57611d2b611ebc565b5b828201905092915050565b6000611d4282611e00565b9150611d4d83611e00565b925082611d5d57611d5c611eeb565b5b828204905092915050565b6000611d7382611e00565b9150611d7e83611e00565b9250817fffffffffffffffffffffffffffffffffffffffffffffffffffffffffffffffff0483118215151615611db757611db6611ebc565b5b828202905092915050565b6000611dcd82611de0565b9050919050565b60008115159050919050565b600073ffffffffffffffffffffffffffffffffffffffff82169050919050565b6000819050919050565b600060ff82169050919050565b82818337600083830152505050565b60005b83811015611e44578082015181840152602081019050611e29565b83811115611e53576000848401525b50505050565b60006002820490506001821680611e7157607f821691505b60208210811415611e8557611e84611f1a565b5b50919050565b611e9482611f78565b810181811067ffffffffffffffff82111715611eb357611eb2611f49565b5b80604052505050565b7f4e487b7100000000000000000000000000000000000000000000000000000000600052601160045260246000fd5b7f4e487b7100000000000000000000000000000000000000000000000000000000600052601260045260246000fd5b7f4e487b7100000000000000000000000000000000000000000000000000000000600052602260045260246000fd5b7f4e487b7100000000000000000000000000000000000000000000000000000000600052604160045260246000fd5b6000601f19601f8301169050919050565b7f45524332303a207472616e7366657220746f20746865207a65726f206164647260008201527f6573730000000000000000000000000000000000000000000000000000000000602082015250565b7f4f776e61626c653a206e6577206f776e657220697320746865207a65726f206160008201527f6464726573730000000000000000000000000000000000000000000000000000602082015250565b7f45524332303a20617070726f766520746f20746865207a65726f20616464726560008201527f7373000000000000000000000000000000000000000000000000000000000000602082015250565b7f45524332303a207472616e7366657220616d6f756e742065786365656473206260008201527f616c616e63650000000000000000000000000000000000000000000000000000602082015250565b7f496e73756666696369656e74207061796d656e74000000000000000000000000600082015250565b7f45524332303a207472616e7366657220616d6f756e742065786365656473206160008201527f6c6c6f77616e6365000000000000000000000000000000000000000000000000602082015250565b7f4f776e61626c653a2063616c6c6572206973206e6f7420746865206f776e6572600082015250565b7f4d757374206d696e74206120706f736974697665206e756d626572206f66206d60008201527f65737361676520746f6b656e7300000000000000000000000000000000000000602082015250565b7f5061796d656e7420616e64206e756d626572206f66206d65737361676520746f60008201527f6b656e732072657175657374656420646f206e6f74206d617463682e204d616b60208201527f65207375726520796f7520617265207573696e6720746865207269676874207060408201527f726963652e000000000000000000000000000000000000000000000000000000606082015250565b7f45524332303a207472616e736665722066726f6d20746865207a65726f20616460008201527f6472657373000000000000000000000000000000000000000000000000000000602082015250565b7f45524332303a20617070726f76652066726f6d20746865207a65726f2061646460008201527f7265737300000000000000000000000000000000000000000000000000000000602082015250565b7f496e73756666696369656e74206d6573736167652062616c616e636500000000600082015250565b7f45524332303a2064656372656173656420616c6c6f77616e63652062656c6f7760008201527f207a65726f000000000000000000000000000000000000000000000000000000602082015250565b7f45524332303a206d696e7420746f20746865207a65726f206164647265737300600082015250565b61239881611dc2565b81146123a357600080fd5b50565b6123af81611e00565b81146123ba57600080fd5b5056fea26469706673582212200de218580d82de82aebab359314b5142ad602facc612f454eb3c1626396fc99064736f6c63430008040033",
  "linkReferences": {},
  "deployedLinkReferences": {}
}