{
  "_format": "hh-sol-artifact-1",
  "contractName": "MessageCoin",
  "sourceName": "contracts/MessageCoin.sol",
  "abi": [
    {
      "inputs": [
        {
          "internalType": "string",
          "name": "name",
          "type": "string"
        },
        {
          "internalType": "string",
          "name": "symbol",
          "type": "string"
        }
      ],
      "stateMutability": "nonpayable",
      "type": "constructor"
    },
    {
      "anonymous": false,
      "inputs": [
        {
          "indexed": true,
          "internalType": "address",
          "name": "owner",
          "type": "address"
        },
        {
          "indexed": true,
          "internalType": "address",
          "name": "spender",
          "type": "address"
        },
        {
          "indexed": false,
          "internalType": "uint256",
          "name": "value",
          "type": "uint256"
        }
      ],
      "name": "Approval",
      "type": "event"
    },
    {
      "anonymous": false,
      "inputs": [
        {
          "indexed": true,
          "internalType": "address",
          "name": "previousOwner",
          "type": "address"
        },
        {
          "indexed": true,
          "internalType": "address",
          "name": "newOwner",
          "type": "address"
        }
      ],
      "name": "OwnershipTransferred",
      "type": "event"
    },
    {
      "anonymous": false,
      "inputs": [
        {
          "indexed": true,
          "internalType": "address",
          "name": "from",
          "type": "address"
        },
        {
          "indexed": true,
          "internalType": "address",
          "name": "to",
          "type": "address"
        },
        {
          "indexed": false,
          "internalType": "uint256",
          "name": "value",
          "type": "uint256"
        }
      ],
      "name": "Transfer",
      "type": "event"
    },
    {
      "inputs": [
        {
          "internalType": "address",
          "name": "owner",
          "type": "address"
        },
        {
          "internalType": "address",
          "name": "spender",
          "type": "address"
        }
      ],
      "name": "allowance",
      "outputs": [
        {
          "internalType": "uint256",
          "name": "",
          "type": "uint256"
        }
      ],
      "stateMutability": "view",
      "type": "function"
    },
    {
      "inputs": [
        {
          "internalType": "address",
          "name": "spender",
          "type": "address"
        },
        {
          "internalType": "uint256",
          "name": "amount",
          "type": "uint256"
        }
      ],
      "name": "approve",
      "outputs": [
        {
          "internalType": "bool",
          "name": "",
          "type": "bool"
        }
      ],
      "stateMutability": "nonpayable",
      "type": "function"
    },
    {
      "inputs": [
        {
          "internalType": "address",
          "name": "account",
          "type": "address"
        }
      ],
      "name": "balanceOf",
      "outputs": [
        {
          "internalType": "uint256",
          "name": "",
          "type": "uint256"
        }
      ],
      "stateMutability": "view",
      "type": "function"
    },
    {
      "inputs": [],
      "name": "cost",
      "outputs": [
        {
          "internalType": "uint256",
          "name": "",
          "type": "uint256"
        }
      ],
      "stateMutability": "view",
      "type": "function"
    },
    {
      "inputs": [],
      "name": "decimals",
      "outputs": [
        {
          "internalType": "uint8",
          "name": "",
          "type": "uint8"
        }
      ],
      "stateMutability": "pure",
      "type": "function"
    },
    {
      "inputs": [
        {
          "internalType": "address",
          "name": "spender",
          "type": "address"
        },
        {
          "internalType": "uint256",
          "name": "subtractedValue",
          "type": "uint256"
        }
      ],
      "name": "decreaseAllowance",
      "outputs": [
        {
          "internalType": "bool",
          "name": "",
          "type": "bool"
        }
      ],
      "stateMutability": "nonpayable",
      "type": "function"
    },
    {
      "inputs": [],
      "name": "destroy",
      "outputs": [],
      "stateMutability": "nonpayable",
      "type": "function"
    },
    {
      "inputs": [],
      "name": "getBalance",
      "outputs": [
        {
          "internalType": "uint256",
          "name": "",
          "type": "uint256"
        }
      ],
      "stateMutability": "view",
      "type": "function"
    },
    {
      "inputs": [
        {
          "internalType": "address",
          "name": "spender",
          "type": "address"
        },
        {
          "internalType": "uint256",
          "name": "addedValue",
          "type": "uint256"
        }
      ],
      "name": "increaseAllowance",
      "outputs": [
        {
          "internalType": "bool",
          "name": "",
          "type": "bool"
        }
      ],
      "stateMutability": "nonpayable",
      "type": "function"
    },
    {
      "inputs": [
        {
          "internalType": "uint256",
          "name": "amt",
          "type": "uint256"
        }
      ],
      "name": "mint",
      "outputs": [],
      "stateMutability": "payable",
      "type": "function"
    },
    {
      "inputs": [],
      "name": "name",
      "outputs": [
        {
          "internalType": "string",
          "name": "",
          "type": "string"
        }
      ],
      "stateMutability": "view",
      "type": "function"
    },
    {
      "inputs": [],
      "name": "owner",
      "outputs": [
        {
          "internalType": "address",
          "name": "",
          "type": "address"
        }
      ],
      "stateMutability": "view",
      "type": "function"
    },
    {
      "inputs": [],
      "name": "renounceOwnership",
      "outputs": [],
      "stateMutability": "nonpayable",
      "type": "function"
    },
    {
      "inputs": [
        {
          "internalType": "uint256",
          "name": "newCost",
          "type": "uint256"
        }
      ],
      "name": "setCost",
      "outputs": [],
      "stateMutability": "nonpayable",
      "type": "function"
    },
    {
      "inputs": [],
      "name": "symbol",
      "outputs": [
        {
          "internalType": "string",
          "name": "",
          "type": "string"
        }
      ],
      "stateMutability": "view",
      "type": "function"
    },
    {
      "inputs": [],
      "name": "totalSupply",
      "outputs": [
        {
          "internalType": "uint256",
          "name": "",
          "type": "uint256"
        }
      ],
      "stateMutability": "view",
      "type": "function"
    },
    {
      "inputs": [
        {
          "internalType": "address",
          "name": "recipient",
          "type": "address"
        },
        {
          "internalType": "uint256",
          "name": "amount",
          "type": "uint256"
        }
      ],
      "name": "transfer",
      "outputs": [
        {
          "internalType": "bool",
          "name": "",
          "type": "bool"
        }
      ],
      "stateMutability": "nonpayable",
      "type": "function"
    },
    {
      "inputs": [
        {
          "internalType": "address",
          "name": "sender",
          "type": "address"
        },
        {
          "internalType": "address",
          "name": "recipient",
          "type": "address"
        },
        {
          "internalType": "uint256",
          "name": "amount",
          "type": "uint256"
        }
      ],
      "name": "transferFrom",
      "outputs": [
        {
          "internalType": "bool",
          "name": "",
          "type": "bool"
        }
      ],
      "stateMutability": "nonpayable",
      "type": "function"
    },
    {
      "inputs": [
        {
          "internalType": "address",
          "name": "newOwner",
          "type": "address"
        }
      ],
      "name": "transferOwnership",
      "outputs": [],
      "stateMutability": "nonpayable",
      "type": "function"
    },
    {
      "inputs": [],
      "name": "withdraw",
      "outputs": [],
      "stateMutability": "payable",
      "type": "function"
    },
    {
      "stateMutability": "payable",
      "type": "receive"
    }
  ],
  "bytecode": "0x60806040523480156200001157600080fd5b50604051620028613803806200286183398181016040528101906200003791906200042c565b81818160039080519060200190620000519291906200030a565b5080600490805190602001906200006a9291906200030a565b5050506200008d62000081620000b960201b60201c565b620000c160201b60201c565b620000a43364e8d4a510006200018760201b60201c565b655af3107a4000600681905550505062000756565b600033905090565b6000600560009054906101000a900473ffffffffffffffffffffffffffffffffffffffff16905081600560006101000a81548173ffffffffffffffffffffffffffffffffffffffff021916908373ffffffffffffffffffffffffffffffffffffffff1602179055508173ffffffffffffffffffffffffffffffffffffffff168173ffffffffffffffffffffffffffffffffffffffff167f8be0079c531659141344cd1fd0a4f28419497f9722a3daafe3b4186f6b6457e060405160405180910390a35050565b600073ffffffffffffffffffffffffffffffffffffffff168273ffffffffffffffffffffffffffffffffffffffff161415620001fa576040517f08c379a0000000000000000000000000000000000000000000000000000000008152600401620001f190620004d7565b60405180910390fd5b6200020e600083836200030060201b60201c565b806002600082825462000222919062000586565b92505081905550806000808473ffffffffffffffffffffffffffffffffffffffff1673ffffffffffffffffffffffffffffffffffffffff168152602001908152602001600020600082825462000279919062000586565b925050819055508173ffffffffffffffffffffffffffffffffffffffff16600073ffffffffffffffffffffffffffffffffffffffff167fddf252ad1be2c89b69c2b068fc378daa952ba7f163c4a11628f55a4df523b3ef83604051620002e09190620004f9565b60405180910390a3620002fc600083836200030560201b60201c565b5050565b505050565b505050565b828054620003189062000623565b90600052602060002090601f0160209004810192826200033c576000855562000388565b82601f106200035757805160ff191683800117855562000388565b8280016001018555821562000388579182015b82811115620003875782518255916020019190600101906200036a565b5b5090506200039791906200039b565b5090565b5b80821115620003b65760008160009055506001016200039c565b5090565b6000620003d1620003cb846200053f565b62000516565b905082815260208101848484011115620003ea57600080fd5b620003f7848285620005ed565b509392505050565b600082601f8301126200041157600080fd5b815162000423848260208601620003ba565b91505092915050565b600080604083850312156200044057600080fd5b600083015167ffffffffffffffff8111156200045b57600080fd5b6200046985828601620003ff565b925050602083015167ffffffffffffffff8111156200048757600080fd5b6200049585828601620003ff565b9150509250929050565b6000620004ae601f8362000575565b9150620004bb826200072d565b602082019050919050565b620004d181620005e3565b82525050565b60006020820190508181036000830152620004f2816200049f565b9050919050565b6000602082019050620005106000830184620004c6565b92915050565b60006200052262000535565b905062000530828262000659565b919050565b6000604051905090565b600067ffffffffffffffff8211156200055d576200055c620006ed565b5b62000568826200071c565b9050602081019050919050565b600082825260208201905092915050565b60006200059382620005e3565b9150620005a083620005e3565b9250827fffffffffffffffffffffffffffffffffffffffffffffffffffffffffffffffff03821115620005d857620005d76200068f565b5b828201905092915050565b6000819050919050565b60005b838110156200060d578082015181840152602081019050620005f0565b838111156200061d576000848401525b50505050565b600060028204905060018216806200063c57607f821691505b60208210811415620006535762000652620006be565b5b50919050565b62000664826200071c565b810181811067ffffffffffffffff82111715620006865762000685620006ed565b5b80604052505050565b7f4e487b7100000000000000000000000000000000000000000000000000000000600052601160045260246000fd5b7f4e487b7100000000000000000000000000000000000000000000000000000000600052602260045260246000fd5b7f4e487b7100000000000000000000000000000000000000000000000000000000600052604160045260246000fd5b6000601f19601f8301169050919050565b7f45524332303a206d696e7420746f20746865207a65726f206164647265737300600082015250565b6120fb80620007666000396000f3fe6080604052600436106101235760003560e01c806370a08231116100a0578063a0712d6811610064578063a0712d68146103d8578063a457c2d7146103f4578063a9059cbb14610431578063dd62ed3e1461046e578063f2fde38b146104ab57610151565b806370a0823114610317578063715018a61461035457806383197ef01461036b5780638da5cb5b1461038257806395d89b41146103ad57610151565b806323b872dd116100e757806323b872dd1461023f578063313ce5671461027c57806339509351146102a75780633ccfd60b146102e457806344a0d68a146102ee57610151565b806306fdde0314610156578063095ea7b31461018157806312065fe0146101be57806313faede6146101e957806318160ddd1461021457610151565b36610151576000600654346101389190611ad7565b9050600081111561014e5761014d33826104d4565b5b50005b600080fd5b34801561016257600080fd5b5061016b610634565b604051610178919061186d565b60405180910390f35b34801561018d57600080fd5b506101a860048036038101906101a39190611596565b6106c6565b6040516101b59190611852565b60405180910390f35b3480156101ca57600080fd5b506101d36106e4565b6040516101e09190611a2f565b60405180910390f35b3480156101f557600080fd5b506101fe6106ec565b60405161020b9190611a2f565b60405180910390f35b34801561022057600080fd5b506102296106f2565b6040516102369190611a2f565b60405180910390f35b34801561024b57600080fd5b5061026660048036038101906102619190611547565b6106fc565b6040516102739190611852565b60405180910390f35b34801561028857600080fd5b506102916107f4565b60405161029e9190611a4a565b60405180910390f35b3480156102b357600080fd5b506102ce60048036038101906102c99190611596565b6107f9565b6040516102db9190611852565b60405180910390f35b6102ec6108a5565b005b3480156102fa57600080fd5b50610315600480360381019061031091906115d2565b61096a565b005b34801561032357600080fd5b5061033e600480360381019061033991906114e2565b6109f0565b60405161034b9190611a2f565b60405180910390f35b34801561036057600080fd5b50610369610a38565b005b34801561037757600080fd5b50610380610ac0565b005b34801561038e57600080fd5b50610397610b55565b6040516103a49190611837565b60405180910390f35b3480156103b957600080fd5b506103c2610b7f565b6040516103cf919061186d565b60405180910390f35b6103f260048036038101906103ed91906115d2565b610c11565b005b34801561040057600080fd5b5061041b60048036038101906104169190611596565b610d0c565b6040516104289190611852565b60405180910390f35b34801561043d57600080fd5b5061045860048036038101906104539190611596565b610df7565b6040516104659190611852565b60405180910390f35b34801561047a57600080fd5b506104956004803603810190610490919061150b565b610e15565b6040516104a29190611a2f565b60405180910390f35b3480156104b757600080fd5b506104d260048036038101906104cd91906114e2565b610e9c565b005b600073ffffffffffffffffffffffffffffffffffffffff168273ffffffffffffffffffffffffffffffffffffffff161415610544576040517f08c379a000000000000000000000000000000000000000000000000000000000815260040161053b90611a0f565b60405180910390fd5b61055060008383610f94565b80600260008282546105629190611a81565b92505081905550806000808473ffffffffffffffffffffffffffffffffffffffff1673ffffffffffffffffffffffffffffffffffffffff16815260200190815260200160002060008282546105b79190611a81565b925050819055508173ffffffffffffffffffffffffffffffffffffffff16600073ffffffffffffffffffffffffffffffffffffffff167fddf252ad1be2c89b69c2b068fc378daa952ba7f163c4a11628f55a4df523b3ef8360405161061c9190611a2f565b60405180910390a361063060008383610f99565b5050565b60606003805461064390611bea565b80601f016020809104026020016040519081016040528092919081815260200182805461066f90611bea565b80156106bc5780601f10610691576101008083540402835291602001916106bc565b820191906000526020600020905b81548152906001019060200180831161069f57829003601f168201915b5050505050905090565b60006106da6106d3610f9e565b8484610fa6565b6001905092915050565b600047905090565b60065481565b6000600254905090565b6000610709848484611171565b6000600160008673ffffffffffffffffffffffffffffffffffffffff1673ffffffffffffffffffffffffffffffffffffffff1681526020019081526020016000206000610754610f9e565b73ffffffffffffffffffffffffffffffffffffffff1673ffffffffffffffffffffffffffffffffffffffff168152602001908152602001600020549050828110156107d4576040517f08c379a00000000000000000000000000000000000000000000000000000000081526004016107cb9061192f565b60405180910390fd5b6107e8856107e0610f9e565b858403610fa6565b60019150509392505050565b600090565b600061089b610806610f9e565b848460016000610814610f9e565b73ffffffffffffffffffffffffffffffffffffffff1673ffffffffffffffffffffffffffffffffffffffff16815260200190815260200160002060008873ffffffffffffffffffffffffffffffffffffffff1673ffffffffffffffffffffffffffffffffffffffff168152602001908152602001600020546108969190611a81565b610fa6565b6001905092915050565b6108ad610f9e565b73ffffffffffffffffffffffffffffffffffffffff166108cb610b55565b73ffffffffffffffffffffffffffffffffffffffff1614610921576040517f08c379a00000000000000000000000000000000000000000000000000000000081526004016109189061194f565b60405180910390fd5b3373ffffffffffffffffffffffffffffffffffffffff166108fc479081150290604051600060405180830381858888f19350505050158015610967573d6000803e3d6000fd5b50565b610972610f9e565b73ffffffffffffffffffffffffffffffffffffffff16610990610b55565b73ffffffffffffffffffffffffffffffffffffffff16146109e6576040517f08c379a00000000000000000000000000000000000000000000000000000000081526004016109dd9061194f565b60405180910390fd5b8060068190555050565b60008060008373ffffffffffffffffffffffffffffffffffffffff1673ffffffffffffffffffffffffffffffffffffffff168152602001908152602001600020549050919050565b610a40610f9e565b73ffffffffffffffffffffffffffffffffffffffff16610a5e610b55565b73ffffffffffffffffffffffffffffffffffffffff1614610ab4576040517f08c379a0000000000000000000000000000000000000000000000000000000008152600401610aab9061194f565b60405180910390fd5b610abe60006113f2565b565b610ac8610f9e565b73ffffffffffffffffffffffffffffffffffffffff16610ae6610b55565b73ffffffffffffffffffffffffffffffffffffffff1614610b3c576040517f08c379a0000000000000000000000000000000000000000000000000000000008152600401610b339061194f565b60405180910390fd5b3373ffffffffffffffffffffffffffffffffffffffff16ff5b6000600560009054906101000a900473ffffffffffffffffffffffffffffffffffffffff16905090565b606060048054610b8e90611bea565b80601f0160208091040260200160405190810160405280929190818152602001828054610bba90611bea565b8015610c075780601f10610bdc57610100808354040283529160200191610c07565b820191906000526020600020905b815481529060010190602001808311610bea57829003601f168201915b5050505050905090565b60008111610c54576040517f08c379a0000000000000000000000000000000000000000000000000000000008152600401610c4b9061196f565b60405180910390fd5b60065481610c629190611b08565b341015610ca4576040517f08c379a0000000000000000000000000000000000000000000000000000000008152600401610c9b9061190f565b60405180910390fd5b600654600182610cb49190611a81565b610cbe9190611b08565b3410610cff576040517f08c379a0000000000000000000000000000000000000000000000000000000008152600401610cf69061198f565b60405180910390fd5b610d0933826104d4565b50565b60008060016000610d1b610f9e565b73ffffffffffffffffffffffffffffffffffffffff1673ffffffffffffffffffffffffffffffffffffffff16815260200190815260200160002060008573ffffffffffffffffffffffffffffffffffffffff1673ffffffffffffffffffffffffffffffffffffffff16815260200190815260200160002054905082811015610dd8576040517f08c379a0000000000000000000000000000000000000000000000000000000008152600401610dcf906119ef565b60405180910390fd5b610dec610de3610f9e565b85858403610fa6565b600191505092915050565b6000610e0b610e04610f9e565b8484611171565b6001905092915050565b6000600160008473ffffffffffffffffffffffffffffffffffffffff1673ffffffffffffffffffffffffffffffffffffffff16815260200190815260200160002060008373ffffffffffffffffffffffffffffffffffffffff1673ffffffffffffffffffffffffffffffffffffffff16815260200190815260200160002054905092915050565b610ea4610f9e565b73ffffffffffffffffffffffffffffffffffffffff16610ec2610b55565b73ffffffffffffffffffffffffffffffffffffffff1614610f18576040517f08c379a0000000000000000000000000000000000000000000000000000000008152600401610f0f9061194f565b60405180910390fd5b600073ffffffffffffffffffffffffffffffffffffffff168173ffffffffffffffffffffffffffffffffffffffff161415610f88576040517f08c379a0000000000000000000000000000000000000000000000000000000008152600401610f7f906118af565b60405180910390fd5b610f91816113f2565b50565b505050565b505050565b600033905090565b600073ffffffffffffffffffffffffffffffffffffffff168373ffffffffffffffffffffffffffffffffffffffff161415611016576040517f08c379a000000000000000000000000000000000000000000000000000000000815260040161100d906119cf565b60405180910390fd5b600073ffffffffffffffffffffffffffffffffffffffff168273ffffffffffffffffffffffffffffffffffffffff161415611086576040517f08c379a000000000000000000000000000000000000000000000000000000000815260040161107d906118cf565b60405180910390fd5b80600160008573ffffffffffffffffffffffffffffffffffffffff1673ffffffffffffffffffffffffffffffffffffffff16815260200190815260200160002060008473ffffffffffffffffffffffffffffffffffffffff1673ffffffffffffffffffffffffffffffffffffffff168152602001908152602001600020819055508173ffffffffffffffffffffffffffffffffffffffff168373ffffffffffffffffffffffffffffffffffffffff167f8c5be1e5ebec7d5bd14f71427d1e84f3dd0314c0f7b2291e5b200ac8c7c3b925836040516111649190611a2f565b60405180910390a3505050565b600073ffffffffffffffffffffffffffffffffffffffff168373ffffffffffffffffffffffffffffffffffffffff1614156111e1576040517f08c379a00000000000000000000000000000000000000000000000000000000081526004016111d8906119af565b60405180910390fd5b600073ffffffffffffffffffffffffffffffffffffffff168273ffffffffffffffffffffffffffffffffffffffff161415611251576040517f08c379a00000000000000000000000000000000000000000000000000000000081526004016112489061188f565b60405180910390fd5b61125c838383610f94565b60008060008573ffffffffffffffffffffffffffffffffffffffff1673ffffffffffffffffffffffffffffffffffffffff168152602001908152602001600020549050818110156112e2576040517f08c379a00000000000000000000000000000000000000000000000000000000081526004016112d9906118ef565b60405180910390fd5b8181036000808673ffffffffffffffffffffffffffffffffffffffff1673ffffffffffffffffffffffffffffffffffffffff16815260200190815260200160002081905550816000808573ffffffffffffffffffffffffffffffffffffffff1673ffffffffffffffffffffffffffffffffffffffff16815260200190815260200160002060008282546113759190611a81565b925050819055508273ffffffffffffffffffffffffffffffffffffffff168473ffffffffffffffffffffffffffffffffffffffff167fddf252ad1be2c89b69c2b068fc378daa952ba7f163c4a11628f55a4df523b3ef846040516113d99190611a2f565b60405180910390a36113ec848484610f99565b50505050565b6000600560009054906101000a900473ffffffffffffffffffffffffffffffffffffffff16905081600560006101000a81548173ffffffffffffffffffffffffffffffffffffffff021916908373ffffffffffffffffffffffffffffffffffffffff1602179055508173ffffffffffffffffffffffffffffffffffffffff168173ffffffffffffffffffffffffffffffffffffffff167f8be0079c531659141344cd1fd0a4f28419497f9722a3daafe3b4186f6b6457e060405160405180910390a35050565b6000813590506114c781612097565b92915050565b6000813590506114dc816120ae565b92915050565b6000602082840312156114f457600080fd5b6000611502848285016114b8565b91505092915050565b6000806040838503121561151e57600080fd5b600061152c858286016114b8565b925050602061153d858286016114b8565b9150509250929050565b60008060006060848603121561155c57600080fd5b600061156a868287016114b8565b935050602061157b868287016114b8565b925050604061158c868287016114cd565b9150509250925092565b600080604083850312156115a957600080fd5b60006115b7858286016114b8565b92505060206115c8858286016114cd565b9150509250929050565b6000602082840312156115e457600080fd5b60006115f2848285016114cd565b91505092915050565b61160481611b62565b82525050565b61161381611b74565b82525050565b600061162482611a65565b61162e8185611a70565b935061163e818560208601611bb7565b61164781611ca9565b840191505092915050565b600061165f602383611a70565b915061166a82611cba565b604082019050919050565b6000611682602683611a70565b915061168d82611d09565b604082019050919050565b60006116a5602283611a70565b91506116b082611d58565b604082019050919050565b60006116c8602683611a70565b91506116d382611da7565b604082019050919050565b60006116eb601483611a70565b91506116f682611df6565b602082019050919050565b600061170e602883611a70565b915061171982611e1f565b604082019050919050565b6000611731602083611a70565b915061173c82611e6e565b602082019050919050565b6000611754602d83611a70565b915061175f82611e97565b604082019050919050565b6000611777606583611a70565b915061178282611ee6565b608082019050919050565b600061179a602583611a70565b91506117a582611f81565b604082019050919050565b60006117bd602483611a70565b91506117c882611fd0565b604082019050919050565b60006117e0602583611a70565b91506117eb8261201f565b604082019050919050565b6000611803601f83611a70565b915061180e8261206e565b602082019050919050565b61182281611ba0565b82525050565b61183181611baa565b82525050565b600060208201905061184c60008301846115fb565b92915050565b6000602082019050611867600083018461160a565b92915050565b600060208201905081810360008301526118878184611619565b905092915050565b600060208201905081810360008301526118a881611652565b9050919050565b600060208201905081810360008301526118c881611675565b9050919050565b600060208201905081810360008301526118e881611698565b9050919050565b60006020820190508181036000830152611908816116bb565b9050919050565b60006020820190508181036000830152611928816116de565b9050919050565b6000602082019050818103600083015261194881611701565b9050919050565b6000602082019050818103600083015261196881611724565b9050919050565b6000602082019050818103600083015261198881611747565b9050919050565b600060208201905081810360008301526119a88161176a565b9050919050565b600060208201905081810360008301526119c88161178d565b9050919050565b600060208201905081810360008301526119e8816117b0565b9050919050565b60006020820190508181036000830152611a08816117d3565b9050919050565b60006020820190508181036000830152611a28816117f6565b9050919050565b6000602082019050611a446000830184611819565b92915050565b6000602082019050611a5f6000830184611828565b92915050565b600081519050919050565b600082825260208201905092915050565b6000611a8c82611ba0565b9150611a9783611ba0565b9250827fffffffffffffffffffffffffffffffffffffffffffffffffffffffffffffffff03821115611acc57611acb611c1c565b5b828201905092915050565b6000611ae282611ba0565b9150611aed83611ba0565b925082611afd57611afc611c4b565b5b828204905092915050565b6000611b1382611ba0565b9150611b1e83611ba0565b9250817fffffffffffffffffffffffffffffffffffffffffffffffffffffffffffffffff0483118215151615611b5757611b56611c1c565b5b828202905092915050565b6000611b6d82611b80565b9050919050565b60008115159050919050565b600073ffffffffffffffffffffffffffffffffffffffff82169050919050565b6000819050919050565b600060ff82169050919050565b60005b83811015611bd5578082015181840152602081019050611bba565b83811115611be4576000848401525b50505050565b60006002820490506001821680611c0257607f821691505b60208210811415611c1657611c15611c7a565b5b50919050565b7f4e487b7100000000000000000000000000000000000000000000000000000000600052601160045260246000fd5b7f4e487b7100000000000000000000000000000000000000000000000000000000600052601260045260246000fd5b7f4e487b7100000000000000000000000000000000000000000000000000000000600052602260045260246000fd5b6000601f19601f8301169050919050565b7f45524332303a207472616e7366657220746f20746865207a65726f206164647260008201527f6573730000000000000000000000000000000000000000000000000000000000602082015250565b7f4f776e61626c653a206e6577206f776e657220697320746865207a65726f206160008201527f6464726573730000000000000000000000000000000000000000000000000000602082015250565b7f45524332303a20617070726f766520746f20746865207a65726f20616464726560008201527f7373000000000000000000000000000000000000000000000000000000000000602082015250565b7f45524332303a207472616e7366657220616d6f756e742065786365656473206260008201527f616c616e63650000000000000000000000000000000000000000000000000000602082015250565b7f496e73756666696369656e74207061796d656e74000000000000000000000000600082015250565b7f45524332303a207472616e7366657220616d6f756e742065786365656473206160008201527f6c6c6f77616e6365000000000000000000000000000000000000000000000000602082015250565b7f4f776e61626c653a2063616c6c6572206973206e6f7420746865206f776e6572600082015250565b7f4d757374206d696e74206120706f736974697665206e756d626572206f66206d60008201527f65737361676520746f6b656e7300000000000000000000000000000000000000602082015250565b7f5061796d656e7420616e64206e756d626572206f66206d65737361676520746f60008201527f6b656e732072657175657374656420646f206e6f74206d617463682e204d616b60208201527f65207375726520796f7520617265207573696e6720746865207269676874207060408201527f726963652e000000000000000000000000000000000000000000000000000000606082015250565b7f45524332303a207472616e736665722066726f6d20746865207a65726f20616460008201527f6472657373000000000000000000000000000000000000000000000000000000602082015250565b7f45524332303a20617070726f76652066726f6d20746865207a65726f2061646460008201527f7265737300000000000000000000000000000000000000000000000000000000602082015250565b7f45524332303a2064656372656173656420616c6c6f77616e63652062656c6f7760008201527f207a65726f000000000000000000000000000000000000000000000000000000602082015250565b7f45524332303a206d696e7420746f20746865207a65726f206164647265737300600082015250565b6120a081611b62565b81146120ab57600080fd5b50565b6120b781611ba0565b81146120c257600080fd5b5056fea264697066735822122075e43aea8d5fdf2b69d725f6ed9012cea2cd156ca153f5f6e59e6bdbdcf9e56f64736f6c63430008040033",
  "linkReferences": {},
  "deployedLinkReferences": {}
}